:0100000000FF
:0100010000FE
:0100020000FD
:010003001CE0
:0100040022D9
:0100050020DA
:0100060020D9
:0100070020D8
:0100080022D5
:010009001CDA
:01000A0008ED
:01000B0000F4
:01000C0000F3
:01000D0000F2
:01000E0000F1
:01000F0000F0
:0100100000EF
:0100110000EE
:0100120000ED
:0100130022CA
:0100140000EB
:0100150022C8
:0100160022C7
:0100170022C6
:0100180026C1
:010019001ACC
:01001A0000E5
:01001B0000E4
:01001C0000E3
:01001D0000E2
:01001E0000E1
:01001F0000E0
:0100200000DF
:0100210000DE
:0100220000DD
:0100230004D8
:0100240008D3
:010025001CBE
:0100260022B7
:010027003E9A
:0100280020B7
:010029001CBA
:01002A0000D5
:01002B0000D4
:01002C0000D3
:01002D0000D2
:01002E0000D1
:01002F0000D0
:0100300000CF
:0100310000CE
:0100320000CD
:0100330008C4
:0100340014B7
:010035001CAE
:0100360002C7
:010037001EAA
:0100380022A5
:010039001EA8
:01003A0000C5
:01003B0000C4
:01003C0000C3
:01003D0000C2
:01003E0000C1
:01003F0000C0
:0100400000BF
:0100410000BE
:0100420000BD
:0100430014A8
:0100440000BB
:010045001C9E
:0100460002B7
:010047001E9A
:010048002295
:010049001E98
:01004A0000B5
:01004B0000B4
:01004C0000B3
:01004D0000B2
:01004E0000B1
:01004F0000B0
:0100500000AF
:0100510000AE
:0100520000AD
:01005300109C
:0100540008A3
:010055001C8E
:0100560002A7
:010057001E8A
:010058002285
:010059001E88
:01005A0000A5
:01005B0000A4
:01005C0000A3
:01005D0000A2
:01005E0000A1
:01005F0000A0
:01006000009F
:01006100009E
:01006200009D
:010063000894
:01006400009B
:010065001C7E
:010066000297
:010067001E7A
:010068002275
:010069001E78
:01006A000095
:01006B000094
:01006C000093
:01006D000092
:01006E000091
:01006F000090
:01007000008F
:01007100008E
:01007200008D
:01007300008C
:01007400008B
:010075001C6E
:010076002267
:010077002068
:010078002265
:010079001C6A
:01007A00087D
:01007B000084
:01007C000083
:01007D000082
:01007E000081
:01007F000080
:01008000007F
:01008100007E
:01008200007D
:010083000874
:010084001467
:010085001C5E
:010086002257
:010087003E3A
:010088002057
:010089001C5A
:01008A000075
:01008B000074
:01008C000073
:01008D000072
:01008E000071
:01008F000070
:01009000006F
:01009100006E
:01009200006D
:010093001458
:01009400006B
:010095001C4E
:010096002247
:010097003E2A
:010098002047
:010099001C4A
:01009A000065
:01009B000064
:01009C000063
:01009D000062
:01009E000061
:01009F000060
:0100A000005F
:0100A100005E
:0100A200005D
:0100A300104C
:0100A4000853
:0100A5001C3E
:0100A6002237
:0100A7003E1A
:0100A8002037
:0100A9001C3A
:0100AA000055
:0100AB000054
:0100AC000053
:0100AD000052
:0100AE000051
:0100AF000050
:0100B000004F
:0100B100004E
:0100B200004D
:0100B3001438
:0100B400004B
:0100B5001832
:0100B6000841
:0100B7000840
:0100B800083F
:0100B9001C2A
:0100BA000045
:0100BB000044
:0100BC000043
:0100BD000042
:0100BE000041
:0100BF000040
:0100C000003F
:0100C100003E
:0100C200003D
:0100C3000834
:0100C4001427
:0100C500003A
:0100C6001821
:0100C7000830
:0100C800082F
:0100C9001C1A
:0100CA000035
:0100CB000034
:0100CC000033
:0100CD000032
:0100CE000031
:0100CF000030
:0100D000002F
:0100D100002E
:0100D200002D
:0100D300002C
:0100D4000C1F
:0100D5001218
:0100D6001C0D
:0100D7001216
:0100D8001215
:0100D9001C0A
:0100DA002005
:0100DB000024
:0100DC000023
:0100DD000022
:0100DE000021
:0100DF000020
:0100E000001F
:0100E100001E
:0100E200001D
:0100E30022FA
:0100E4000813
:0100E5001406
:0100E60022F7
:0100E7003EDA
:0100E80022F5
:0100E90022F4
:0100EA000015
:0100EB000014
:0100EC000013
:0100ED000012
:0100EE000011
:0100EF000010
:0100F000000F
:0100F100000E
:0100F200000D
:0100F3000804
:0100F4000803
:0100F50014F6
:0100F60022E7
:0100F7003ECA
:0100F80022E5
:0100F90022E4
:0100FA000005
:0100FB000004
:0100FC000003
:0100FD000002
:0100FE000001
:0100FF000000
:0101000000FE
:0101010000FD
:0101020000FC
:0101030004F7
:0101040008F2
:010105001CDD
:0101060022D6
:0101070022D5
:0101080022D4
:010109001CD9
:01010A0000F4
:01010B0000F3
:01010C0000F2
:01010D0000F1
:01010E0000F0
:01010F0000EF
:0101100000EE
:0101110000ED
:0101120000EC
:0101130000EB
:0101140000EA
:0101150034B5
:010116000ADE
:010117001EC9
:0101180028BE
:010119001EC7
:01011A0000E4
:01011B0000E3
:01011C0000E2
:01011D0000E1
:01011E0000E0
:01011F0000DF
:0101200000DE
:0101210000DD
:0101220000DC
:010123001EBD
:0101240028B2
:0101250028B1
:010126003C9C
:0101270028AF
:0101280028AE
:010129002CA9
:01012A0000D4
:01012B0000D3
:01012C0000D2
:01012D0000D1
:01012E0000D0
:01012F0000CF
:0101300000CE
:0101310000CD
:0101320000CC
:0101330008C3
:0101340014B6
:010135001CAD
:0101360022A6
:0101370022A5
:0101380022A4
:010139001CA9
:01013A0000C4
:01013B0000C3
:01013C0000C2
:01013D0000C1
:01013E0000C0
:01013F0000BF
:0101400000BE
:0101410000BD
:0101420000BC
:0101430014A7
:0101440000BA
:010145001C9D
:010146002296
:010147002295
:010148002294
:010149001C99
:01014A0000B4
:01014B0000B3
:01014C0000B2
:01014D0000B1
:01014E0000B0
:01014F0000AF
:0101500000AE
:0101510000AD
:0101520000AC
:0101530000AB
:0101540000AA
:010155001C8D
:010156002682
:010157002E79
:010158003274
:010159001C89
:01015A0000A4
:01015B0000A3
:01015C0000A2
:01015D0000A1
:01015E0000A0
:01015F00009F
:01016000009E
:01016100009D
:01016200009C
:010163000893
:010164001486
:010165000099
:010166002276
:010167002275
:010168002670
:010169001A7B
:01016A000094
:01016B000093
:01016C000092
:01016D000091
:01016E000090
:01016F00008F
:01017000008E
:01017100008D
:01017200008C
:01017300107B
:010174000882
:010175002267
:010176002266
:010177002265
:010178002660
:010179001A6B
:01017A000084
:01017B000083
:01017C000082
:01017D000081
:01017E000080
:01017F00007F
:01018000007E
:01018100007D
:01018200007C
:010183001C5F
:010184002654
:010185002A4F
:010186002A4E
:010187002A4D
:010188003244
:010189001C59
:01018A000074
:01018B000073
:01018C000072
:01018D000071
:01018E000070
:01018F00006F
:01019000006E
:01019100006D
:01019200006C
:010193002249
:010194001C4E
:010195002247
:010196002246
:010197002245
:010198002244
:010199001C49
:01019A000064
:01019B000063
:01019C000062
:01019D000061
:01019E000060
:01019F00005F
:0101A000005E
:0101A100005D
:0101A200005C
:0101A3001447
:0101A4002238
:0101A5002237
:0101A6002236
:0101A7002235
:0101A8002234
:0101A9001C39
:0101AA000054
:0101AB000053
:0101AC000052
:0101AD000051
:0101AE000050
:0101AF00004F
:0101B000004E
:0101B100004D
:0101B200004C
:0101B3001C2F
:0101B400202A
:0101B5001C2D
:0101B6002226
:0101B7001C2B
:0101B8000244
:0101B9001C29
:0101BA000044
:0101BB000043
:0101BC000042
:0101BD000041
:0101BE000040
:0101BF00003F
:0101C000003E
:0101C100003D
:0101C200003C
:0101C3000437
:0101C4000A30
:0101C5000831
:0101C6001C1C
:0101C700082F
:0101C8000A2C
:0101C9003CF9
:0101CA000034
:0101CB000033
:0101CC000032
:0101CD000031
:0101CE000030
:0101CF00002F
:0101D000002E
:0101D100002D
:0101D200002C
:0101D3000823
:0101D4000822
:0101D5003EEB
:0101D6000820
:0101D700081F
:0101D8000026
:0101D9003EE7
:0101DA000024
:0101DB000023
:0101DC000022
:0101DD000021
:0101DE000020
:0101DF00001F
:0101E000001E
:0101E100001D
:0101E200001C
:0101E3000417
:0101E4000A10
:0101E5000415
:0101E6000018
:0101E7000017
:0101E8000016
:0101E9000015
:0101EA000014
:0101EB000013
:0101EC000012
:0101ED000011
:0101EE000010
:0101EF00000F
:0101F000000E
:0101F100000D
:0101F200000C
:0101F3000407
:0101F4000A00
:0101F5000801
:0101F6001CEC
:0101F70008FF
:0101F80008FE
:0101F90028DD
:0101FA0010F4
:0101FB000003
:0101FC000002
:0101FD000001
:0101FE000000
:0101FF0000FF
:0102000000FD
:0102010000FC
:0102020000FB
:0102030000FA
:0102040000F9
:0102050000F8
:0102060000F7
:0102070000F6
:0102080000F5
:0102090000F4
:01020A0000F3
:01020B0000F2
:01020C0000F1
:01020D0000F0
:01020E0000EF
:01020F0000EE
:0102100000ED
:0102110000EC
:0102120000EB
:0102130008E2
:0102140008E1
:0102150008E0
:0102160008DF
:0102170008DE
:0102180000E5
:0102190008DC
:01021A0000E3
:01021B0000E2
:01021C0000E1
:01021D0000E0
:01021E0000DF
:01021F0000DE
:0102200000DD
:0102210000DC
:0102220000DB
:0102230014C6
:0102240014C5
:0102250014C4
:0102260000D7
:0102270000D6
:0102280000D5
:0102290000D4
:01022A0000D3
:01022B0000D2
:01022C0000D1
:01022D0000D0
:01022E0000CF
:01022F0000CE
:0102300000CD
:0102310000CC
:0102320000CB
:0102330014B6
:0102340014B5
:010235003E8A
:0102360014B3
:010237003E88
:0102380014B1
:0102390014B0
:01023A0000C3
:01023B0000C2
:01023C0000C1
:01023D0000C0
:01023E0000BF
:01023F0000BE
:0102400000BD
:0102410000BC
:0102420000BB
:0102430008B2
:010244001E9B
:010245002890
:010246001C9B
:010247000AAC
:010248003C79
:0102490008AC
:01024A0000B3
:01024B0000B2
:01024C0000B1
:01024D0000B0
:01024E0000AF
:01024F0000AE
:0102500000AD
:0102510000AC
:0102520000AB
:010253003278
:010254003277
:0102550004A4
:01025600089F
:010257001096
:01025800267F
:01025900267E
:01025A0000A3
:01025B0000A2
:01025C0000A1
:01025D0000A0
:01025E00009F
:01025F00009E
:01026000009D
:01026100009C
:01026200009B
:01026300108A
:010264002871
:010265002870
:010266001087
:010267002A6C
:010268002471
:010269001A7A
:01026A000093
:01026B000092
:01026C000091
:01026D000090
:01026E00008F
:01026F00008E
:01027000008D
:01027100008C
:01027200008B
:010273000882
:010274000881
:010275001078
:010276000087
:010277000086
:010278000085
:010279000084
:01027A000083
:01027B000082
:01027C000081
:01027D000080
:01027E00007F
:01027F00007E
:01028000007D
:01028100007C
:01028200007B
:010283000872
:010284001069
:010285002058
:010286002057
:010287002056
:010288001065
:01028900086C
:01028A000073
:01028B000072
:01028C000071
:01028D000070
:01028E00006F
:01028F00006E
:01029000006D
:01029100006C
:01029200006B
:010293000862
:010294000465
:010295000266
:010296000265
:010297000264
:010298000461
:01029900085C
:01029A000063
:01029B000062
:01029C000061
:01029D000060
:01029E00005F
:01029F00005E
:0102A000005D
:0102A100005C
:0102A200005B
:0102A300005A
:0102A4000851
:0102A5002A2E
:0102A6001C3B
:0102A7001C3A
:0102A8002A2B
:0102A900084C
:0102AA000053
:0102AB000052
:0102AC000051
:0102AD000050
:0102AE00004F
:0102AF00004E
:0102B000004D
:0102B100004C
:0102B200004B
:0102B300004A
:0102B4000841
:0102B5000840
:0102B6003E09
:0102B700083E
:0102B800083D
:0102B9000044
:0102BA000043
:0102BB000042
:0102BC000041
:0102BD000040
:0102BE00003F
:0102BF00003E
:0102C000003D
:0102C100003C
:0102C200003B
:0102C300003A
:0102C4000039
:0102C5000038
:0102C6000037
:0102C7000036
:0102C800082D
:0102C900082C
:0102CA001023
:0102CB000032
:0102CC000031
:0102CD000030
:0102CE00002F
:0102CF00002E
:0102D000002D
:0102D100002C
:0102D200002B
:0102D300002A
:0102D4000029
:0102D5000028
:0102D6003EE9
:0102D7000026
:0102D8000025
:0102D9000024
:0102DA000023
:0102DB000022
:0102DC000021
:0102DD000020
:0102DE00001F
:0102DF00001E
:0102E000001D
:0102E100001C
:0102E200001B
:0102E300001A
:0102E4000019
:0102E5000018
:0102E6000017
:0102E7000016
:0102E8000015
:0102E900080C
:0102EA000013
:0102EB000012
:0102EC000011
:0102ED000010
:0102EE00000F
:0102EF00000E
:0102F000000D
:0102F100000C
:0102F200000B
:0102F300000A
:0102F4000207
:0102F5000404
:0102F60008FF
:0102F70010F6
:0102F80020E5
:0102F9000004
:0102FA000003
:0102FB000002
:0102FC000001
:0102FD000000
:0102FE0000FF
:0102FF0000FE
:0103000000FC
:0103010000FB
:0103020000FA
:010303001CDD
:0103040022D6
:0103050026D1
:010306002ACC
:0103070032C3
:0103080022D2
:010309001CD7
:01030A0000F2
:01030B0000F1
:01030C0000F0
:01030D0000EF
:01030E0000EE
:01030F0000ED
:0103100000EC
:0103110000EB
:0103120000EA
:0103130008E1
:0103140018D0
:0103150008DF
:0103160008DE
:0103170008DD
:0103180008DC
:010319001CC7
:01031A0000E2
:01031B0000E1
:01031C0000E0
:01031D0000DF
:01031E0000DE
:01031F0000DD
:0103200000DC
:0103210000DB
:0103220000DA
:010323001CBD
:0103240022B6
:0103250002D5
:010326001CBA
:0103270020B5
:0103280020B4
:010329003E95
:01032A0000D2
:01032B0000D1
:01032C0000D0
:01032D0000CF
:01032E0000CE
:01032F0000CD
:0103300000CC
:0103310000CB
:0103320000CA
:010333001CAD
:0103340022A6
:0103350002C5
:0103360004C2
:0103370002C3
:0103380022A2
:010339001CA7
:01033A0000C2
:01033B0000C1
:01033C0000C0
:01033D0000BF
:01033E0000BE
:01033F0000BD
:0103400000BC
:0103410000BB
:0103420000BA
:0103430004B5
:010344000CAC
:0103450014A3
:010346002492
:010347003E77
:0103480004B0
:0103490004AF
:01034A0000B2
:01034B0000B1
:01034C0000B0
:01034D0000AF
:01034E0000AE
:01034F0000AD
:0103500000AC
:0103510000AB
:0103520000AA
:010353003E6B
:010354002088
:010355003C6B
:0103560002A4
:0103570002A3
:0103580002A2
:010359003C67
:01035A0000A2
:01035B0000A1
:01035C0000A0
:01035D00009F
:01035E00009E
:01035F00009D
:01036000009C
:01036100009B
:01036200009A
:010363001C7D
:010364002078
:010365002077
:010366003C5A
:010367002273
:010368002272
:010369001C77
:01036A000092
:01036B000091
:01036C000090
:01036D00008F
:01036E00008E
:01036F00008D
:01037000008C
:01037100008B
:01037200008A
:010373003E4B
:010374000286
:010375000483
:01037600087E
:010377001075
:010378002064
:010379002063
:01037A000082
:01037B000081
:01037C000080
:01037D00007F
:01037E00007E
:01037F00007D
:01038000007C
:01038100007B
:01038200007A
:010383001C5D
:010384002256
:010385002255
:010386001C5A
:010387002253
:010388002252
:010389001C57
:01038A000072
:01038B000071
:01038C000070
:01038D00006F
:01038E00006E
:01038F00006D
:01039000006C
:01039100006B
:01039200006A
:010393001C4D
:010394002246
:010395002245
:010396001E48
:010397000263
:010398000262
:010399001C47
:01039A000062
:01039B000061
:01039C000060
:01039D00005F
:01039E00005E
:01039F00005D
:0103A000005C
:0103A100005B
:0103A200005A
:0103A3000059
:0103A4000058
:0103A500084F
:0103A6000056
:0103A7000055
:0103A800084C
:0103A9000053
:0103AA000052
:0103AB000051
:0103AC000050
:0103AD00004F
:0103AE00004E
:0103AF00004D
:0103B000004C
:0103B100004B
:0103B200004A
:0103B3000049
:0103B4000048
:0103B500083F
:0103B6000046
:0103B7000045
:0103B800083C
:0103B900083B
:0103BA001032
:0103BB000041
:0103BC000040
:0103BD00003F
:0103BE00003E
:0103BF00003D
:0103C000003C
:0103C100003B
:0103C200003A
:0103C3000435
:0103C4000830
:0103C5001027
:0103C6002016
:0103C7001025
:0103C800082C
:0103C900042F
:0103CA000032
:0103CB000031
:0103CC000030
:0103CD00002F
:0103CE00002E
:0103CF00002D
:0103D000002C
:0103D100002B
:0103D200002A
:0103D3000029
:0103D4000028
:0103D5003EE9
:0103D6000026
:0103D7003EE7
:0103D8000024
:0103D9000023
:0103DA000022
:0103DB000021
:0103DC000020
:0103DD00001F
:0103DE00001E
:0103DF00001D
:0103E000001C
:0103E100001B
:0103E200001A
:0103E3001009
:0103E4000810
:0103E5000413
:0103E6000214
:0103E7000411
:0103E800080C
:0103E9001003
:0103EA000012
:0103EB000011
:0103EC000010
:0103ED00000F
:0103EE00000E
:0103EF00000D
:0103F000000C
:0103F100000B
:0103F200000A
:0103F3001CED
:0103F40022E6
:0103F5000205
:0103F6000402
:0103F70008FD
:0103F8000004
:0103F90008FB
:0103FA000002
:0103FB000001
:0103FC000000
:0103FD0000FF
:0103FE0000FE
:0103FF0000FD
:0104000000FB
:0104010000FA
:0104020000F9
:010403001CDC
:0104040022D5
:0104050002F4
:010406001ADB
:010407002ACA
:010408002AC9
:010409001CD6
:01040A0000F1
:01040B0000F0
:01040C0000EF
:01040D0000EE
:01040E0000ED
:01040F0000EC
:0104100000EB
:0104110000EA
:0104120000E9
:0104130008E0
:0104140014D3
:0104150022C4
:0104160022C3
:010417003EA6
:0104180022C1
:0104190022C0
:01041A0000E1
:01041B0000E0
:01041C0000DF
:01041D0000DE
:01041E0000DD
:01041F0000DC
:0104200000DB
:0104210000DA
:0104220000D9
:010423003C9C
:0104240012C5
:0104250012C4
:010426001CB9
:0104270012C2
:0104280012C1
:010429003C96
:01042A0000D1
:01042B0000D0
:01042C0000CF
:01042D0000CE
:01042E0000CD
:01042F0000CC
:0104300000CB
:0104310000CA
:0104320000C9
:010433001CAC
:0104340022A5
:0104350020A6
:0104360020A5
:0104370020A4
:0104380022A1
:010439001CA6
:01043A0000C1
:01043B0000C0
:01043C0000BF
:01043D0000BE
:01043E0000BD
:01043F0000BC
:0104400000BB
:0104410000BA
:0104420000B9
:010443003C7C
:0104440012A5
:0104450012A4
:0104460012A3
:0104470012A2
:0104480012A1
:010449003C76
:01044A0000B1
:01044B0000B0
:01044C0000AF
:01044D0000AE
:01044E0000AD
:01044F0000AC
:0104500000AB
:0104510000AA
:0104520000A9
:010453003E6A
:010454002087
:010455002086
:010456003C69
:010457002084
:010458002083
:010459003E64
:01045A0000A1
:01045B0000A0
:01045C00009F
:01045D00009E
:01045E00009D
:01045F00009C
:01046000009B
:01046100009A
:010462000099
:010463003E5A
:010464002077
:010465002076
:010466003C59
:010467002074
:010468002073
:010469002072
:01046A000091
:01046B000090
:01046C00008F
:01046D00008E
:01046E00008D
:01046F00008C
:01047000008B
:01047100008A
:010472000089
:010473001E6A
:010474002067
:010475002066
:01047600265F
:010477002262
:010478002261
:010479001C66
:01047A000081
:01047B000080
:01047C00007F
:01047D00007E
:01047E00007D
:01047F00007C
:01048000007B
:01048100007A
:010482000079
:010483002256
:010484002255
:010485002254
:010486003E37
:010487002252
:010488002251
:010489002250
:01048A000071
:01048B000070
:01048C00006F
:01048D00006E
:01048E00006D
:01048F00006C
:01049000006B
:01049100006A
:010492000069
:010493001C4C
:01049400085F
:01049500085E
:01049600085D
:01049700085C
:01049800085B
:010499001C46
:01049A000061
:01049B000060
:01049C00005F
:01049D00005E
:01049E00005D
:01049F00005C
:0104A000005B
:0104A100005A
:0104A2000059
:0104A3000256
:0104A4000255
:0104A5000254
:0104A6000253
:0104A7002232
:0104A8002231
:0104A9001C36
:0104AA000051
:0104AB000050
:0104AC00004F
:0104AD00004E
:0104AE00004D
:0104AF00004C
:0104B000004B
:0104B100004A
:0104B2000049
:0104B3002226
:0104B4002423
:0104B500281E
:0104B6003015
:0104B700281C
:0104B800241F
:0104B9002220
:0104BA000041
:0104BB000040
:0104BC00003F
:0104BD00003E
:0104BE00003D
:0104BF00003C
:0104C000003B
:0104C100003A
:0104C2000039
:0104C3002018
:0104C4002017
:0104C5002016
:0104C6002015
:0104C7002014
:0104C8002013
:0104C9003EF4
:0104CA000031
:0104CB000030
:0104CC00002F
:0104CD00002E
:0104CE00002D
:0104CF00002C
:0104D000002B
:0104D100002A
:0104D2000029
:0104D3002206
:0104D40036F1
:0104D5002AFC
:0104D6002AFB
:0104D7002202
:0104D8002201
:0104D9002200
:0104DA000021
:0104DB000020
:0104DC00001F
:0104DD00001E
:0104DE00001D
:0104DF00001C
:0104E000001B
:0104E100001A
:0104E2000019
:0104E30022F6
:0104E40032E5
:0104E5002AEC
:0104E60026EF
:0104E70022F2
:0104E80022F1
:0104E90022F0
:0104EA000011
:0104EB000010
:0104EC00000F
:0104ED00000E
:0104EE00000D
:0104EF00000C
:0104F000000B
:0104F100000A
:0104F2000009
:0104F3001CEC
:0104F40022E5
:0104F50022E4
:0104F60022E3
:0104F70022E2
:0104F80022E1
:0104F9001CE6
:0104FA000001
:0104FB000000
:0104FC0000FF
:0104FD0000FE
:0104FE0000FD
:0104FF0000FC
:0105000000FA
:0105010000F9
:0105020000F8
:010503003CBB
:0105040022D4
:0105050022D3
:010506003CB8
:0105070020D3
:0105080020D2
:0105090020D1
:01050A0000F0
:01050B0000EF
:01050C0000EE
:01050D0000ED
:01050E0000EC
:01050F0000EB
:0105100000EA
:0105110000E9
:0105120000E8
:010513001CCB
:0105140022C4
:0105150022C3
:0105160022C2
:010517002AB9
:0105180024BE
:010519001AC7
:01051A0000E0
:01051B0000DF
:01051C0000DE
:01051D0000DD
:01051E0000DC
:01051F0000DB
:0105200000DA
:0105210000D9
:0105220000D8
:010523003C9B
:0105240022B4
:0105250022B3
:010526003C98
:0105270028AB
:0105280024AE
:0105290022AF
:01052A0000D0
:01052B0000CF
:01052C0000CE
:01052D0000CD
:01052E0000CC
:01052F0000CB
:0105300000CA
:0105310000C9
:0105320000C8
:010533001CAB
:0105340022A4
:0105350010B5
:0105360008BC
:0105370004BF
:0105380022A0
:010539001CA5
:01053A0000C0
:01053B0000BF
:01053C0000BE
:01053D0000BD
:01053E0000BC
:01053F0000BB
:0105400000BA
:0105410000B9
:0105420000B8
:010543003E79
:0105440008AE
:0105450008AD
:0105460008AC
:0105470008AB
:0105480008AA
:0105490008A9
:01054A0000B0
:01054B0000AF
:01054C0000AE
:01054D0000AD
:01054E0000AC
:01054F0000AB
:0105500000AA
:0105510000A9
:0105520000A8
:010553002285
:010554002284
:010555002283
:010556002282
:010557002281
:010558002280
:010559001C85
:01055A0000A0
:01055B00009F
:01055C00009E
:01055D00009D
:01055E00009C
:01055F00009B
:01056000009A
:010561000099
:010562000098
:010563002275
:010564002274
:010565002273
:010566001480
:01056700147F
:01056800088A
:010569000889
:01056A000090
:01056B00008F
:01056C00008E
:01056D00008D
:01056E00008C
:01056F00008B
:01057000008A
:010571000089
:010572000088
:010573002265
:010574002264
:010575002263
:010576002A5A
:010577002A59
:01057800364C
:01057900225F
:01057A000080
:01057B00007F
:01057C00007E
:01057D00007D
:01057E00007C
:01057F00007B
:01058000007A
:010581000079
:010582000078
:010583002255
:010584002254
:010585001461
:01058600086C
:01058700145F
:010588002250
:01058900224F
:01058A000070
:01058B00006F
:01058C00006E
:01058D00006D
:01058E00006C
:01058F00006B
:01059000006A
:010591000069
:010592000068
:010593002245
:010594002244
:010595001451
:01059600085C
:01059700085B
:01059800085A
:010599000859
:01059A000060
:01059B00005F
:01059C00005E
:01059D00005D
:01059E00005C
:01059F00005B
:0105A000005A
:0105A1000059
:0105A2000058
:0105A3003E19
:0105A4000254
:0105A5000451
:0105A600084C
:0105A7001043
:0105A8002032
:0105A9003E13
:0105AA000050
:0105AB00004F
:0105AC00004E
:0105AD00004D
:0105AE00004C
:0105AF00004B
:0105B000004A
:0105B1000049
:0105B2000048
:0105B300380F
:0105B4002026
:0105B5002025
:0105B6002024
:0105B7002023
:0105B8002022
:0105B9003809
:0105BA000040
:0105BB00003F
:0105BC00003E
:0105BD00003D
:0105BE00003C
:0105BF00003B
:0105C000003A
:0105C1000039
:0105C2000038
:0105C3002017
:0105C4002016
:0105C5001025
:0105C600082C
:0105C700042F
:0105C8000230
:0105C900022F
:0105CA000030
:0105CB00002F
:0105CC00002E
:0105CD00002D
:0105CE00002C
:0105CF00002B
:0105D000002A
:0105D1000029
:0105D2000028
:0105D3000E19
:0105D4000224
:0105D5000223
:0105D6000222
:0105D7000221
:0105D8000220
:0105D9000E13
:0105DA000020
:0105DB00001F
:0105DC00001E
:0105DD00001D
:0105DE00001C
:0105DF00001B
:0105E000001A
:0105E1000019
:0105E2000018
:0105E300080F
:0105E4001CFA
:0105E5002AEB
:0105E600080C
:0105E700080B
:0105E800080A
:0105E9000809
:0105EA000010
:0105EB00000F
:0105EC00000E
:0105ED00000D
:0105EE00000C
:0105EF00000B
:0105F000000A
:0105F1000009
:0105F2000008
:0105F3000007
:0105F40008FE
:0105F50010F5
:0105F6003EC6
:0105F70010F3
:0105F80008FA
:0105F9000001
:0105FA000000
:0105FB0000FF
:0105FC0000FE
:0105FD0000FD
:0105FE0000FC
:0105FF0000FB
:0106000000F9
:0106010000F8
:0106020000F7
:0106030008EE
:0106040014E1
:0106050022D2
:0106060000F3
:0106070000F2
:0106080000F1
:0106090000F0
:01060A0000EF
:01060B0000EE
:01060C0000ED
:01060D0000EC
:01060E0000EB
:01060F0000EA
:0106100000E9
:0106110000E8
:0106120000E7
:0106130000E6
:0106140000E5
:010615001CC8
:0106160002E1
:010617001EC4
:0106180022BF
:010619001EC2
:01061A0000DF
:01061B0000DE
:01061C0000DD
:01061D0000DC
:01061E0000DB
:01061F0000DA
:0106200000D9
:0106210000D8
:0106220000D7
:0106230020B6
:0106240020B5
:010625002CA8
:0106260032A1
:0106270022B0
:01062800329F
:010629002CA4
:01062A0000CF
:01062B0000CE
:01062C0000CD
:01062D0000CC
:01062E0000CB
:01062F0000CA
:0106300000C9
:0106310000C8
:0106320000C7
:0106330000C6
:0106340000C5
:010635001CA8
:0106360022A1
:0106370020A2
:01063800229F
:010639001CA4
:01063A0000BF
:01063B0000BE
:01063C0000BD
:01063D0000BC
:01063E0000BB
:01063F0000BA
:0106400000B9
:0106410000B8
:0106420000B7
:0106430002B4
:0106440002B3
:010645001A9A
:01064600268D
:010647002290
:01064800268B
:010649001A96
:01064A0000AF
:01064B0000AE
:01064C0000AD
:01064D0000AC
:01064E0000AB
:01064F0000AA
:0106500000A9
:0106510000A8
:0106520000A7
:0106530000A6
:0106540000A5
:010655001C88
:010656002281
:010657003E64
:010658002081
:010659001C84
:01065A00009F
:01065B00009E
:01065C00009D
:01065D00009C
:01065E00009B
:01065F00009A
:010660000099
:010661000098
:010662000097
:010663000492
:010664000A8B
:01066500088C
:010666001C77
:01066700088A
:010668000889
:010669000888
:01066A00008F
:01066B00008E
:01066C00008D
:01066D00008C
:01066E00008B
:01066F00008A
:010670000089
:010671000088
:010672000087
:010673000086
:010674000085
:010675001A6A
:01067600265D
:01067700265C
:010678001A67
:01067900027E
:01067A001C63
:01067B00007E
:01067C00007D
:01067D00007C
:01067E00007B
:01067F00007A
:010680000079
:010681000078
:010682000077
:010683002056
:010684002055
:010685002C48
:010686003241
:010687002250
:01068800224F
:01068900224E
:01068A00006F
:01068B00006E
:01068C00006D
:01068D00006C
:01068E00006B
:01068F00006A
:010690000069
:010691000068
:010692000067
:010693000066
:01069400085D
:010695000064
:01069600184B
:01069700085A
:010698000859
:010699001C44
:01069A00005F
:01069B00005E
:01069C00005D
:01069D00005C
:01069E00005B
:01069F00005A
:0106A0000059
:0106A1000058
:0106A2000057
:0106A3000056
:0106A4000253
:0106A5000054
:0106A6000251
:0106A7000250
:0106A800024F
:0106A900222E
:0106AA001C33
:0106AB00004E
:0106AC00004D
:0106AD00004C
:0106AE00004B
:0106AF00004A
:0106B0000049
:0106B1000048
:0106B2000047
:0106B3002026
:0106B4002025
:0106B5002420
:0106B600281B
:0106B7003012
:0106B8002819
:0106B900241C
:0106BA00003F
:0106BB00003E
:0106BC00003D
:0106BD00003C
:0106BE00003B
:0106BF00003A
:0106C0000039
:0106C1000038
:0106C2000037
:0106C300181E
:0106C400082D
:0106C500082C
:0106C600082B
:0106C700082A
:0106C8000829
:0106C9001C14
:0106CA00002F
:0106CB00002E
:0106CC00002D
:0106CD00002C
:0106CE00002B
:0106CF00002A
:0106D0000029
:0106D1000028
:0106D2000027
:0106D3000026
:0106D4000025
:0106D5001410
:0106D6002AF9
:0106D7002AF8
:0106D8002AF7
:0106D9002AF6
:0106DA00001F
:0106DB00001E
:0106DC00001D
:0106DD00001C
:0106DE00001B
:0106DF00001A
:0106E0000019
:0106E1000018
:0106E2000017
:0106E3000016
:0106E4000015
:0106E5002CE8
:0106E60032E1
:0106E70022F0
:0106E80022EF
:0106E90022EE
:0106EA00000F
:0106EB00000E
:0106EC00000D
:0106ED00000C
:0106EE00000B
:0106EF00000A
:0106F0000009
:0106F1000008
:0106F2000007
:0106F3000006
:0106F4000005
:0106F5001CE8
:0106F60022E1
:0106F70022E0
:0106F80022DF
:0106F9001CE4
:0106FA0000FF
:0106FB0000FE
:0106FC0000FD
:0106FD0000FC
:0106FE0000FB
:0106FF0000FA
:0107000000F8
:0107010000F7
:0107020000F6
:0107030000F5
:0107040000F4
:010705002CC7
:0107060032C0
:0107070032BF
:010708002CC4
:0107090020CF
:01070A0020CE
:01070B0000ED
:01070C0000EC
:01070D0000EB
:01070E0000EA
:01070F0000E9
:0107100000E8
:0107110000E7
:0107120000E6
:0107130000E5
:0107140000E4
:010715001AC9
:0107160026BC
:0107170026BB
:010718001AC6
:0107190002DD
:01071A0002DC
:01071B0000DD
:01071C0000DC
:01071D0000DB
:01071E0000DA
:01071F0000D9
:0107200000D8
:0107210000D7
:0107220000D6
:0107230000D5
:0107240000D4
:010725002CA7
:0107260032A0
:0107270020B1
:0107280020B0
:0107290020AF
:01072A0000CE
:01072B0000CD
:01072C0000CC
:01072D0000CB
:01072E0000CA
:01072F0000C9
:0107300000C8
:0107310000C7
:0107320000C6
:0107330000C5
:0107340000C4
:010735001EA5
:0107360020A2
:010737001CA5
:0107380002BE
:010739003C83
:01073A0000BE
:01073B0000BD
:01073C0000BC
:01073D0000BB
:01073E0000BA
:01073F0000B9
:0107400000B8
:0107410000B7
:0107420000B6
:0107430010A5
:0107440010A4
:01074500387B
:0107460010A2
:0107470010A1
:01074800129E
:010749000CA3
:01074A0000AE
:01074B0000AD
:01074C0000AC
:01074D0000AB
:01074E0000AA
:01074F0000A9
:0107500000A8
:0107510000A7
:0107520000A6
:0107530000A5
:0107540000A4
:010755002281
:010756002280
:01075700227F
:01075800267A
:010759001A85
:01075A00009E
:01075B00009D
:01075C00009C
:01075D00009B
:01075E00009A
:01075F000099
:010760000098
:010761000097
:010762000096
:010763000095
:010764000094
:010765002271
:010766002270
:01076700226F
:01076800147C
:010769000887
:01076A00008E
:01076B00008D
:01076C00008C
:01076D00008B
:01076E00008A
:01076F000089
:010770000088
:010771000087
:010772000086
:010773000085
:010774000084
:010775002261
:010776002A58
:010777002A57
:01077800146C
:01077900146B
:01077A00007E
:01077B00007D
:01077C00007C
:01077D00007B
:01077E00007A
:01077F000079
:010780000078
:010781000077
:010782000076
:010783000075
:010784000074
:010785002251
:01078600145E
:010787000869
:01078800145C
:01078900224D
:01078A00006E
:01078B00006D
:01078C00006C
:01078D00006B
:01078E00006A
:01078F000069
:010790000068
:010791000067
:010792000066
:010793000065
:010794000064
:010795002241
:010796002240
:01079700223F
:010798001E42
:01079900025D
:01079A001C42
:01079B00005D
:01079C00005C
:01079D00005B
:01079E00005A
:01079F000059
:0107A0000058
:0107A1000057
:0107A2000056
:0107A3000055
:0107A4000054
:0107A5003E15
:0107A600044E
:0107A7000849
:0107A8001040
:0107A9003E11
:0107AA00004E
:0107AB00004D
:0107AC00004C
:0107AD00004B
:0107AE00004A
:0107AF000049
:0107B0000048
:0107B1000047
:0107B2000046
:0107B300083D
:0107B4001034
:0107B5001033
:0107B6002022
:0107B7001031
:0107B8001030
:0107B9000837
:0107BA00003E
:0107BB00003D
:0107BC00003C
:0107BD00003B
:0107BE00003A
:0107BF000039
:0107C0000038
:0107C1000037
:0107C2000036
:0107C300082D
:0107C400082C
:0107C500082B
:0107C6000032
:0107C7000829
:0107C8000828
:0107C9000827
:0107CA00002E
:0107CB00002D
:0107CC00002C
:0107CD00002B
:0107CE00002A
:0107CF000029
:0107D0000028
:0107D1000027
:0107D2000026
:0107D300081D
:0107D4000420
:0107D500041F
:0107D6000220
:0107D700041D
:0107D800041C
:0107D9000817
:0107DA00001E
:0107DB00001D
:0107DC00001C
:0107DD00001B
:0107DE00001A
:0107DF000019
:0107E0000018
:0107E1000017
:0107E2000016
:0107E3001005
:0107E4002AEA
:0107E500040F
:0107E6000012
:0107E7000011
:0107E8000010
:0107E900000F
:0107EA00000E
:0107EB00000D
:0107EC00000C
:0107ED00000B
:0107EE00000A
:0107EF000009
:0107F0000008
:0107F1000007
:0107F2000006
:0107F3000005
:0107F4000004
:0107F5000003
:0107F6000002
:0107F7000001
:0107F8000000
:0107F9003EC1
:0107FA0000FE
:0107FB0000FD
:0107FC0000FC
:0107FD0000FB
:0107FE0000FA
:0107FF0000F9
:00000001FF
